S00B00006C63642E73726563E6
S11300000C9434000C9451000C9451000C94510045
S11300100C9451000C9451000C9451000C94510018
S11300200C9451000C9440010C9451000C94510018
S11300300C9451000C9451000C9451000C945100F8
S11300400C9451000C9451000C9451000C945100E8
S11300500C9451000C9451000C9451000C945100D8
S11300600C9451000C94510011241FBECFEFD8E022
S1130070DEBFCDBF11E0A0E0B1E0E6E9F3E002C0ED
S113008005900D92A831B107D9F721E0A8E1B1E0BC
S113009001C01D92AA31B207E1F70E94FA000C9444
S11300A0C9010C940000299A85E08A95F1F70000B3
S11300B029980895CF93C82F662311F0289A01C078
S11300C02898549A559A569A579A5F985E985D98CC
S11300D05C98CC230CF45F9AC6FD5E9AC5FD5D9ACC
S11300E0C4FD5C9A0E9453005F985E985D985C988A
S11300F0C3FD5F9AC2FD5E9AC1FD5D9AC0FD5C9A24
S11301000E9453005C9A5D9A5E9A5F9A87EB9BE02B
S11301100197F1F700C00000CF91089560E00E94BC
S11301205A00089561E00E945A000895611104C0C4
S113013080580E948E00089580540E948E00089575
S113014081E00E948E00089561E00E945A000895A3
S1130150CF93DF93EC012196FC018081882329F061
S11301600E94A40089918111FBCFDF91CF91089562
S1130170CF93C82F209A559A219A549A559A569AF1
S1130180579A8FEF99EF0197F1F700C000005D9A3D
S11301905C9A0E9453008FE19EE40197F1F700C03E
S11301A000000E9453008FEF90E00197F1F700C028
S11301B000000E9453008FEF90E00197F1F700C018
S11301C000005C980E9453008FEF90E00197F1F7D4
S11301D000C0000088E20E948E0088E00E948E0029
S11301E00E94A00086E00E948E008C2F0E948E0048
S11301F0CF9108958CE00E94B80080E40E948E00A4
S1130200C0E0D1E000E111E089910E949200C017A2
S1130210D107D1F780E80E948E0060E08EE00E9452
S1130220960080E00E94A40081E00E94A40060E0A7
S113023081E00E94960080E191E00E94A80060E0C5
S11302408BE00E94960081E60E94A40061E081E0B8
S11302500E94960082E60E94A40061E08BE00E9466
S1130260960083E60E94A400E1EBF0E080818760C1
S11302708083E0E7F0E08081816080837894FFCF21
S11302801F920F920FB60F9211242F933F934F9307
S11302905F936F937F938F939F93AF93BF93EF93EA
S11302A0FF93CF93DF9300D0CDB7DEB780E290E227
S11302B09A838983809119018F5F863018F4809323
S11302C019011DC010921901809118018F5F8A30A5
S11302D018F48093180102C010921801809118013B
S11302E04AE0BE016F5F7F4F90E00E94940160E09E
S11302F087E00E949600CE0101960E94A8000F900C
S11303000F90DF91CF91FF91EF91BF91AF919F91AA
S11303108F917F916F915F914F913F912F910F90AA
S11303200FBE0F901F901895BB274A3031F49923C4
S113033022F4BDE2909581959F4F0C94A001BB27B8
S1130340FB015527AA27880F991FAA1FA41710F08D
S1130350A41B83955051B9F7A05DAA3308F0A95D99
S1130360A193009779F7B111B1931192CB010C9439
S1130370B901DC01FC01672F71917723E1F7329712
S113038004C07C916D9370836291AE17BF07C8F36C
S10903900895F894FFCF6C
S11303960E1F1A1C1F0E00001100050300111F1F5B
S10B03A630303A30302E3000F3
S9030000FC
